:020000040000fa
:080000000002040000000000f2
:020000040000fa
:040008004e0700009f
:020000040000fa
:04000c004a050000a1
:020000040000fa
:040010004e07000097
:020000040000fa
:040014005205000091
:020000040000fa
:040018004e0700008f
:020000040000fa
:04001c004e0700008b
:020000040000fa
:040020004e07000087
:020000040000fa
:040024004e07000083
:020000040000fa
:040028009c05000033
:020000040000fa
:04002c004e0700007b
:020000040000fa
:040030004e07000077
:020000040000fa
:040034005a05000069
:020000040000fa
:040038004e0700006f
:020000040000fa
:04003c004e0700006b
:020000040000fa
:040040004e07000067
:020000040000fa
:040044004e07000063
:020000040000fa
:040048004e0700005f
:020000040000fa
:04004c004e0700005b
:020000040000fa
:040050004e07000057
:020000040000fa
:040054004e07000053
:020000040000fa
:040058004e0700004f
:020000040000fa
:04005c004e0700004b
:020000040000fa
:040060004e07000047
:020000040000fa
:040064004e07000043
:020000040000fa
:040068004e0700003f
:020000040000fa
:04006c00fa02000094
:020000040000fa
:040070004e07000037
:020000040000fa
:04007400ce050000b5
:020000040000fa
:04007800a4050000db
:020000040000fa
:04007c004e0700002b
:020000040000fa
:040080004e07000027
:020000040000fa
:040084004e07000023
:020000040000fa
:040088004e0700001f
:020000040000fa
:04008c004e0700001b
:020000040000fa
:040090004e07000017
:020000040000fa
:0400940088050000db
:020000040000fa
:040098004e0700000f
:020000040000fa
:04009c00ac050000af
:020000040000fa
:0400a0004e07000007
:020000040000fa
:0400a4004e07000003
:020000040000fa
:0400a8004e070000ff
:020000040000fa
:0400ac004e070000fb
:020000040000fa
:0400b0004e070000f7
:020000040000fa
:0400b4004e070000f3
:020000040000fa
:0400b8004e070000ef
:020000040000fa
:0400bc004e070000eb
:020000040000fa
:0400c0004e070000e7
:020000040000fa
:0400c4004e070000e3
:020000040000fa
:0400c8004e070000df
:020000040000fa
:0400cc004e070000db
:020000040000fa
:0400d0004e070000d7
:020000040000fa
:0400d4004e070000d3
:020000040000fa
:0400d8004e070000cf
:020000040000fa
:0400dc004e070000cb
:020000040000fa
:0400e0004e070000c7
:020000040000fa
:0400e4004e070000c3
:020000040000fa
:0400e8004e070000bf
:020000040000fa
:0400ec004e070000bb
:020000040000fa
:0400f0004e070000b7
:020000040000fa
:0400f4004e070000b3
:020000040000fa
:0400f8004e070000af
:020000040000fa
:0400fc004e070000ab
:020000040000fa
:040100004e070000a6
:020000040000fa
:040104004e070000a2
:020000040000fa
:040108004e0700009e
:020000040000fa
:04010c004e0700009a
:020000040000fa
:040110004e07000096
:020000040000fa
:040114004e07000092
:020000040000fa
:040118004e0700008e
:020000040000fa
:04011c004e0700008a
:020000040000fa
:040120004e07000086
:020000040000fa
:040124004e07000082
:020000040000fa
:040128004e0700007e
:020000040000fa
:04012c004e0700007a
:020000040000fa
:040130004e07000076
:020000040000fa
:040134004e07000072
:020000040000fa
:040138004e0700006e
:020000040000fa
:04013c004e0700006a
:020000040000fa
:040140004e07000066
:020000040000fa
:040144004e07000062
:020000040000fa
:040148004e0700005e
:020000040000fa
:04014c004e0700005a
:020000040000fa
:040150004e07000056
:020000040000fa
:040154004e07000052
:020000040000fa
:040158004e0700004e
:020000040000fa
:04015c004e0700004a
:020000040000fa
:040160004e07000046
:020000040000fa
:040164004e07000042
:020000040000fa
:040168004e0700003e
:020000040000fa
:04016c004e0700003a
:020000040000fa
:040170004e07000036
:020000040000fa
:040174004e07000032
:020000040000fa
:040178004e0700002e
:020000040000fa
:04017c004e0700002a
:020000040000fa
:040180004e07000026
:020000040000fa
:040184004e07000022
:020000040000fa
:040188004e0700001e
:020000040000fa
:04018c004e0700001a
:020000040000fa
:040190004e07000016
:020000040000fa
:040194004e07000012
:020000040000fa
:040198004e0700000e
:020000040000fa
:04019c004e0700000a
:020000040000fa
:0401a0004e07000006
:020000040000fa
:0401a4004e07000002
:020000040000fa
:0401a8004e070000fe
:020000040000fa
:0401ac004e070000fa
:020000040000fa
:0401b0004e070000f6
:020000040000fa
:0401b4004e070000f2
:020000040000fa
:0401b8004e070000ee
:020000040000fa
:0401bc004e070000ea
:020000040000fa
:0401c0004e070000e6
:020000040000fa
:0401c4004e070000e2
:020000040000fa
:0401c8004e070000de
:020000040000fa
:0401cc004e070000da
:020000040000fa
:0401d0004e070000d6
:020000040000fa
:0401d4004e070000d2
:020000040000fa
:0401d8004e070000ce
:020000040000fa
:0401dc004e070000ca
:020000040000fa
:0401e0004e070000c6
:020000040000fa
:0401e4004e070000c2
:020000040000fa
:0401e8004e070000be
:020000040000fa
:0401ec004e070000ba
:020000040000fa
:0401f0004e070000b6
:020000040000fa
:0401f4004e070000b2
:020000040000fa
:0401f8004e070000ae
:020000040000fa
:0401fc004e070000aa
:020000040000fa
:040200004e070000a5
:020000040000fa
:040204004e070000a1
:020000040000fa
:040208004e0700009d
:020000040000fa
:04020c004e07000099
:020000040000fa
:040210004e07000095
:020000040000fa
:040214004e07000091
:020000040000fa
:040218004e0700008d
:020000040000fa
:04021c004e07000089
:020000040000fa
:040220004e07000085
:020000040000fa
:040224004e07000081
:020000040000fa
:040228004e0700007d
:020000040000fa
:04022c004e07000079
:020000040000fa
:040230004e07000075
:020000040000fa
:040234004e07000071
:020000040000fa
:040238004e0700006d
:020000040000fa
:04023c004e07000069
:020000040000fa
:040240004e07000065
:020000040000fa
:040244004e07000061
:020000040000fa
:040248004e0700005d
:020000040000fa
:04024c004e07000059
:020000040000fa
:040250004e07000055
:020000040000fa
:040254004e07000051
:020000040000fa
:040258004e0700004d
:020000040000fa
:04025c004e07000049
:020000040000fa
:040260004e07000045
:020000040000fa
:040264004e07000041
:020000040000fa
:040268004e0700003d
:020000040000fa
:04026c004e07000039
:020000040000fa
:040270004e07000035
:020000040000fa
:040274004e07000031
:020000040000fa
:040278004e0700002d
:020000040000fa
:04027c004e07000029
:020000040000fa
:040280004e07000025
:020000040000fa
:040284004e07000021
:020000040000fa
:040288004e0700001d
:020000040000fa
:04028c004e07000019
:020000040000fa
:040290004e07000015
:020000040000fa
:040294004e07000011
:020000040000fa
:040298004e0700000d
:020000040000fa
:04029c004e07000009
:020000040000fa
:0402a0004e07000005
:020000040000fa
:0402a4004e07000001
:020000040000fa
:0402a8004e070000fd
:020000040000fa
:0402ac004e070000f9
:020000040000fa
:0402b0004e070000f5
:020000040000fa
:0402b4004e070000f1
:020000040000fa
:0402b8004e070000ed
:020000040000fa
:0402bc004e070000e9
:020000040000fa
:0402c0004e070000e5
:020000040000fa
:0402c4004e070000e1
:020000040000fa
:0402c8004e070000dd
:020000040000fa
:0402cc004e070000d9
:020000040000fa
:0402d0004e070000d5
:020000040000fa
:0402d4004e070000d1
:020000040000fa
:0402d8004e070000cd
:020000040000fa
:0402dc004e070000c9
:020000040000fa
:0402e0004e070000c5
:020000040000fa
:0402e4004e070000c1
:020000040000fa
:0402e8004e070000bd
:020000040000fa
:0402ec004e070000b9
:020000040000fa
:0402f0004e070000b5
:020000040000fa
:0402f4004e070000b1
:020000040000fa
:0402f8004e070000ad
:020000040000fa
:0402fc004e070000a9
:020000040000fa
:040300004e070000a4
:020000040000fa
:040304004e070000a0
:020000040000fa
:040308004e0700009c
:020000040000fa
:04030c004e07000098
:020000040000fa
:040310004e07000094
:020000040000fa
:100400000f1421000eff24000e01880000000000e0
:10041000000020000000e000020032000001200087
:1004200020028800140007009e0207000000e00080
:1004300003003a008016210001002000020037006e
:100440000000200001002000810f70000100320038
:100450000f000700000020000000e0000200320052
:100460000000020000000000840b020000000000f9
:100470000040da000000fe00200020000000e00044
:1004800002003200100020009001880000000600e9
:10049000a1028800800478000000eb001f003700f4
:1004a000e284440054a0b4009905ba00e2844400f8
:1004b00054a0b4009906ba00e284440054a0b400e9
:1004c0000006eb00476fde00fd07b200ae018800ba
:1004d000636ce10003003a000ad801000000eb0061
:1004e0000e003700606ce10008003a00004deb00a0
:1004f0000a05e800020039003420ec000af0a000f0
:100500008b05e900f9ff3e00040037006168e10057
:10051000010032000086eb000b00070019c7ba008b
:100520000e04e0001905ba0003003a000a00e000da
:10053000dbff3a0000000600fe07b200ae028800b2
:100540008a047800f5ff37000cd0a300e20f4d00bd
:100550001c00390089027800354dba000a05e80010
:10056000020039003420ec000af0a0008b05e900fd
:100570000f003200254dba000a05e80002003900dc
:100580003420ec000af0a0008b05e90008003200de
:100590000c00e0000600320015cdba000a05e800a4
:1005a000020039003420ec000af0a0008b05e900bd
:1005b0008984e80054a0b4000b00e000e2ff3a0098
:1005c000000006009902ba00055d78008b05e9007d
:1005d000f7ff3200c82ade00055d78008b05e900d0
:1005e000f3ff32000c00e000f1ff320019ddba0029
:1005f000eeff37003600f800809fbe00829fbe00ed
:10060000849fbe00869fbe000000fa000228a90059
:100610002110800000082000008060000000e00041
:100620000800320004e2a9005230ef00c0828000ce
:10063000200090008000eb00010878005830ef00a7
:100640000d013700908280008000eb00b200200096
:1006500003002000820f5000838f5800fc003e00f2
:10066000000601000b003700390037007500370025
:100670009c003700f3003700c8003700d90037006e
:10068000f0003700db003700f1003700340037009e
:1006900050003700a004210020009000620060009c
:1006a0000000e000f3003a00a004210010009000d8
:1006b000c0828800a0042100100090001040780043
:1006c00054f0b700a004210010009000100090002a
:1006d000b0828800a004210010009000e6004000d5
:1006e000a004210011009800a004210090009000b7
:1006f00040132100808f500003003a00a004210025
:10070000e112210011009800a0042100a000900037
:100710000100a10021009800a00421009000900099
:10072000a004210010007800808f500004003a00df
:10073000a0042100a00090000110a000210098005a
:100740000002a8002000200090828800ca00370024
:100750000022a8002000200090828800c6003700f8
:100760002110800000002800008060000000e000f0
:1007700008003200a0042100604090008040e800a2
:10078000a0042100614098004000200015060700e9
:10079000b9003700d08280008000d100f00f200027
:1007a0000080600060108800d082800061006000de
:1007b000004078000004e00003003200b000200098
:1007c00090828800ac0037003000200090828800c2
:1007d000a900370021108000000028000080600080
:1007e0000000e00008003200a004210060409000fa
:1007f0008040e800a00421006140980040002000f3
:10080000f80507009c0037000022a800d082800075
:100810004800de00e6006000000f200001007000cc
:10082000d0828800d08280000000a000d0828800a2
:1008300010c0b3005cf0b700200020009082880058
:100840008d0037005cd0bf00e14f50000a0032003d
:10085000b082800010007800d0828800b0828000d2
:1008600020009000f0828800b0828000204090003c
:1008700060f0b700010037005c70ef00d1828000ab
:10088000f00f2000808f500009003600d0828000d9
:100890004800de00e6006000000f2000010070004c
:1008a00060108800a000200090828800720037004d
:1008b000d082800060108800d082800061006000db
:1008c000004078000004e0000300320050002000e7
:1008d00090828800680037003000200090828800f5
:1008e00065003700211080000000280000806000b3
:1008f0000000e00009003200a004210060409000e8
:100900008040e800a00421006140980005e2a900b1
:1009100050002000b30507005700370060d0bf002b
:100920008080fb008100e900cf08de008140780074
:100930000040e90060f0b7000104e0001000320060
:10094000b082800066004000b082880054d0bf00b2
:100950000040e90054f0b70054d0bf000004e000ac
:1009600003003a00200020009e05070042003700e7
:100970000022a80020002000908288003e0037005e
:10098000f0828000904078008180fb006110880038
:100990000000e800f0828800370037002110800056
:1009a00000002800008060000000e0000900320024
:1009b000a0042100604090008040e800a0042100d5
:1009c00061409800400020008605070005e2a9006c
:1009d000290037000062a800800020009082880073
:1009e0002500370080002000908288000062a80067
:1009f00021003700f0828000711080008140780073
:100a0000014878000000e800f082880060d0bf0054
:100a10000040e90060f0b70060d0bf000004e000d3
:100a20000400320000a2a90060002000908288002b
:100a30000200370000a2a800590507000082a800a4
:100a40000d00370020002000660507000a0037006f
:100a5000a0042100604090008040e800a004210034
:100a600061409800600020005e0507000000000063
:100a700001003700000000000080fa004f03be00b4
:100a80004f02be004f01be004f00be003600f9000d
:100a9000004006000000fa000000fe000080fa009e
:100aa000004006000000fa000000fe000080fa008e
:100ab000004006003600f800809fbe00829fbe0006
:100ac000849fbe00869fbe000000fa0021088000bf
:100ad00000002800008060000000e00003003200f9
:100ae00050e6200001002000fc0607000021ef0076
:100af0000068a9000080fa004f03be004f02be004c
:100b00004f01be004f00be003600f9000040060055
:100b1000801f78000000fa0026d0bf000040e800e7
:100b200026f0b7001421ef000368a9000080fa0046
:100b30004f007800004006000000fa000008a900fd
:100b40000080fa00004006000000fa000288a900b8
:100b50000080fa00004006003600f800809fbe00ca
:100b6000829fbe00849fbe00869fbe000000fa00e8
:100b700050e6200001002000d806070003a8a900c5
:100b80000080fa004f03be004f02be004f01be00be
:100b90004f00be003600f900004006003600f800a5
:100ba000809fbe00829fbe00849fbe00869fbe00c5
:100bb0000200fa0040f7290051002000c706070094
:100bc00040062000000f7800b070800062006000d6
:100bd0000000e00022003a00008080000000e000f9
:100be0001f003a001a30ef000600370020ff2800ef
:100bf00001002000b9060700d08080000000e80056
:100c0000d0808800b0708000620060000000e000ca
:100c100003003a00d08080009e0f5000f3ff39009f
:100c2000d0808000800078001e80e900808f500016
:100c30000b00360010002000008088001c30ef0000
:100c40001e30ef00b1808000e0702200808f5000e5
:100c500003003c00b08080000000e800b080880005
:100c600010708000700060000000e00022003a0078
:100c7000108080000000e0001f003a001a30ef00f2
:100c80000600370020ff280001002000930607001f
:100c9000d08080000000e800d080880010708000c4
:100ca000700060000000e00003003a00d080800087
:100cb0009e0f5000f3ff3900d08080008000780044
:100cc0001e80e900808f50000b00360010002000cd
:100cd000108088002030ef002230ef00c1808000bb
:100ce000e0702200808f500003003c00c080800034
:100cf0000000e800c0808800b070800062006000e2
:100d00000000e000040032000030ef0020ff280067
:100d10000100200071060700107080007000600064
:100d20000000e000040032000230ef0020ff280045
:100d3000010020006906070010708000610060005b
:100d40000000e00035003a001a30ef0006003700de
:100d500040f729005100200060060700d080800085
:100d60000000e800d0808800107080006100600002
:100d70000000e00003003a00d0808000f30f500034
:100d8000f3ff3400d0808000f20f500023003400c5
:100d9000008080000000e00007003200108080002a
:100da0000000e00004003a000030ef00024ea9000d
:100db0001000200020808800008080000000e000fb
:100dc00007003a00108080000000e00004003200bc
:100dd0000230ef001000200030808800026ea90071
:100de000008080000000e0000900320010808000d8
:100df0000000e000060032000230ef000030ef009b
:100e00001000200040808800026ea900024ea90058
:100e100080a82300810320003006070010708000a6
:100e2000620060000000e00014003a001a30ef0099
:100e30000600370040f72900510020002706070070
:100e4000d08080000000e800d08088001070800012
:100e5000620060000000e00003003a00d0808000e3
:100e6000f30f5000f3ff3400d0808000f20f5000e9
:100e70000200340010002000508088000268a900a1
:100e80000080fa004f03be004f02be004f01be00bb
:100e90004f00be003600f900004006000040da00b6
:100ea0000000fe000000050003f0a200889fbe00c5
:100eb0008a9fbe008c1f7800b9000700c000330075
:100ec0006450e1004f0032006420e1005200320023
:100ed00003826c0007003b000905d0000306d00028
:100ee000820f54000c065d0002003900020032003f
:100ef00089017800030678008582550004003d00d2
:100f00000003fd008103fd008502ea008b8542009d
:100f1000840f720002003b0060001000e0801800a7
:100f20006011b8000005eb007a28e1000a003900e2
:100f300006007800c75ddd00f707b2008780750006
:100f40002d003700828171000a0178006105600080
:100f50008180d1000080d3008502e900f9ff3b00c9
:100f6000060440008784480002003b00600414002f
:100f7000e0841c000988a300070032008a81710008
:100f800082817100610164008904d1000884d3006a
:100f90008b05e800170037000978a30013003a001a
:100fa0000b00e000130034008b05e9000804440046
:100fb00089844c000a4474000978a3000d003a00ab
:100fc0000b00e000070034008b05e9000804440032
:100fd00089844c0001003a000b0020000978a3002e
:100fe000f7ff32000001eb00020037008281710040
:100ff0000a0178002f0007000cf0a70001f0a00004
:10100000780037006420e10002003a00838f6c0012
:10101000780033000801be000200be0071003700f6
:101020000001be00490007000470a70003f0a10002
:1010300003f8a30013003a006509b1001000320064
:10104000090035006928e100020035000100280090
:101050000000050000004000818048008502e90092
:10106000fcff3a0000000600f88f42000500350042
:101070008100d1000080d3008502e800fcff3a0027
:10108000000006008000eb00000005006011b800c1
:10109000c60037000001eb009d000700040032008d
:1010a0000200200003f8230001f0a7007eff0700e4
:1010b0000000060081002000618055000b003d000b
:1010c0000b00200061fe2f000100e1001d00340034
:1010d00082817100610164008904d1000884d30019
:1010e0000000e800faff3a0071002000610064008f
:1010f0000300700002006000090032006104440037
:10110000e0844c000988a500050032008b05e8004a
:101110006808e10002003a008904d1000884d30085
:10112000f20f20000258e10005003d00c75ddd0020
:10113000f907b200898075000800780000000600f9
:101140000bf827008b00780000000500c70ade00be
:10115000f107b200f50fb20008003200e1cf420003
:10116000020032000170a00024000500810f700011
:10117000010032000408050044000500810f7000e2
:1011800002003a00140005008502e900000040005a
:1011900081c04800fcff3b000170a0002400050056
:1011a0000004be00e9ff07000003be000405be0006
:1011b0000200be00e5ff0700844f75000000060036
:1011c0000200be006450e100050036006420e1002a
:1011d000020036000968a30001003a000800be00c2
:1011e0000160a0004f0678004f05be004f04be000e
:1011f00000000600f0ff2f00f1ff2700f9ff370085
:10120000889fbe008a9fbe008c1f7800e4ff070005
:10121000ebff330003866c006450e10024003200d1
:101220006420e100270032006150e100220032001a
:101230006120e100210032008b854200eb07b10004
:101240000134b800003ab8000804420089844a001a
:10125000013ab8000030b8008880400009014a0017
:101260000400330000004000818048000201490072
:101270008b05e900c909dd0083017000010032001f
:1012800013002000c814de004814dd004709de000a
:101290001200b200c808de000884700085ff070055
:1012a00001f0a1000cf0a70001f0a000cdff370075
:1012b0006120e100cfff32000801be000200be0045
:1012c000f7ff37006150e100fcff3a00c9ff37002b
:1012d0006022b800060220000000d0008180d20009
:1012e0000482d2008582d2000000a00002025200d7
:1012f00083825a00030031000202420083824a00c6
:101300000000a1000603e900f3ff3a000000060018
:10131000889fbe008a9fbe000003be008bff0700af
:101320008505780082815200020020006220e100e1
:1013300004003a00f307b100040035007718e1001b
:10134000040035000600be00140037006000b8003d
:101350000f003700f50f2000faff2f008502d100a3
:101360000a85d3008301e900fcff3b008184620011
:1013700000046500890f7400f2ff32008582ea00e4
:101380000a85ea00818462000004650049ff0700c5
:1013900007f0a70001f0a0000081eb000200e000d0
:1013a0004f05be004f04be0000000600889fbe002f
:1013b0008a9fbe00008270000402710004827100e6
:1013c000260032000004be000200be006011b8001a
:1013d0006b092000950220000182cf000a0039002d
:1013e0000541b1000082cf00070039000541b1007e
:1013f0000982cf00040039000541b1000882cf0006
:10140000010039000541b1000542520012003200ce
:101410000a003b0082817100610164008100d100fb
:101420000080d3008984d3000884d3008b05e800b2
:101430000442e800f7ff3a000700370008044400c0
:1014400089844c0000004800818048008b05e90039
:101450000442e900f9ff3a0016ff07004f05be00fd
:081460004f04be00000006006d
:020000040000fa
:101468000000fa0020c0b300120407007080880052
:10147800708080000040780024f0b7000080fa00f7
:10148800000006000200fa00889fbe00000f7800e6
:101498003230ef003430ef003630ef003830ef00f4
:1014a8003a30ef009e007800f1818800f0818000da
:1014b8000000e00016003200f1818000d0cc2c0042
:1014c8000008b8004308de00d08188001e007800bc
:1014d8008000eb00ebfe07000004be00d081800016
:1014e8008000eb00e7fe0700e8fe0700020020008e
:1014f8000312240040ff07000001be000800be00e0
:1015080067fe0700c4fe070000007800908188008d
:10151800d08180008000eb00dafe0700dbfe0700c8
:10152800bdfe070000007800f0818800f08180008f
:101538000000e00016003200f1818000d0cc2c00c1
:101548000008b8004308de00d0818800f0818000e0
:101558008000eb00cbfe07000004be00d0818000b5
:101568008000eb00c7fe0700c8fe0700020020004d
:101578000312240020ff07000001be000800be007f
:1015880047fe0700a4fe070000007800a08188003d
:10159800d08180008000eb00bafe0700bbfe070088
:1015a8009dfe070000007800f0818800f08180002f
:1015b8000000e00016003200f1818000d0cc2c0041
:1015c8000008b8004308de00d0818800f081800060
:1015d8008000eb00abfe07000004be00d081800055
:1015e8008000eb00a7fe0700a8fe0700020020000d
:1015f8000312240000ff07000001be000800be001f
:1016080027fe070084fe070000007800b0818800ec
:10161800d08180008000eb009afe07009bfe070047
:101628007dfe070000007800f0818800f0818000ce
:101638000000e00016003200f1818000d0cc2c00c0
:101648000008b8004308de00d0818800f0818000df
:101658008000eb008bfe07000004be00d0818000f4
:101668008000eb0087fe070088fe070002002000cc
:1016780003122400e0fe07000001be000800be00bf
:1016880007fe070064fe070000007800c08188009c
:101698004f04be000080fa00000006000000fa00b7
:1016a80060fd2a00110020000a04070070838000f2
:1016b800030721000001780021c0b300f0072100d2
:1016c800530207000000000080838000e20f5000f2
:1016d800fdff3a0060fd2a0011002000fd0307000d
:1016e80070838000030721000001780081c0b300e7
:1016f80010082100460207000080fa0000000600da
:101708000000fa00c7030700024ea900026ea900f4
:1017180080fc230021002000ee030700920307004d
:1017280080fc230021002000ea030700f8010700dd
:1017380080fc230021002000e6030700168ea80085
:10174800d6ff070040d42100c1012000e1030700b3
:1017580017aea800708380000307210000017800fd
:1017680021c0b300000c21002902070080ee2300ed
:10177800b1002000d7030700708380000307210011
:101788000001780021c0b300b00721002002070043
:1017980080ee2300b1002000ce0307007083800094
:1017a800030721000001780071c0b3004007210041
:1017b800170207000051270001072000c503070092
:1017c800168ea90017aea900cb0137000080800053
:1017d800e10f500002003a0010c0b30044f0b70017
:1017e80010808000e10f500002003a0010c0b300e2
:1017f80045f0b7004030ef004230ef0021013700dc
:101808003030ef00c1003700808180000000e80020
:101818008081880020ff280001002000ad03070018
:1018280000808000e10f500006003a00e080800050
:10183800f180800061004000e0804800e08088007e
:10184800f180880010808000e10f500006003a0007
:10185800008180001181800061004000e080480024
:101868000081880011818800508080000000e0001d
:10187800a6003200008080000000e0003600320040
:10188800108080000000e00033003a00168ea800a7
:10189800c0e52d00010120008e0307007fff07002f
:1018a80040d42100c10120008a03070017aea80018
:1018b80070838000030721000001780021c0b30075
:1018c800000c2100d201070060fd2a001100200051
:1018d800800307007083800003072100000178005f
:1018e80021c0b300c00b2100c901070060fd2a0018
:1018f8001100200077030700708380000307210090
:101908000001780011c1b30090082100c001070050
:1019180060fd2a00110020006e030700708380001c
:10192800030721000001780021c0b300d00721007f
:10193800b701070060fd2a001100200065030700b9
:10194800708380000307210000017800f1c0b30014
:10195800e0112100ae010700008080000000e000d7
:1019680033003a00108080000000e00030003200b0
:10197800168ea80049ff070040d42100c1012000ad
:101988005403070017aea8007083800003072100e6
:101998000001780021c0b300000c21009c01070061
:1019a80060fd2a00110020004a03070070838000b0
:1019b800030721000001780021c0b300c00b2100fb
:1019c8009301070060fd2a00110020004103070071
:1019d80070838000030721000001780011c1b30063
:1019e800a00921008a01070060fd2a0011002000db
:1019f8003803070070838000030721000001780086
:101a080021c0b300d00721008101070060fd2a0032
:101a1800110020002f0307007083800003072100b6
:101a280000017800f1c0b300e0112100780107003f
:101a3800008080000000e000330032001080800049
:101a48000000e00030003200168ea80013ff0700e7
:101a580040d42100c10120001e03070017aea800d2
:101a680070838000030721000001780021c0b300c3
:101a7800000c21006601070060fd2a00110020000b
:101a88001403070070838000030721000001780019
:101a980021c0b300c00b21005d01070060fd2a00d2
:101aa800110020000b03070070838000030721004a
:101ab8000001780011c1b300b00a210054010700e9
:101ac80060fd2a00110020000203070070838000d7
:101ad800030721000001780021c0b300d0072100ce
:101ae8004b01070060fd2a0011002000f9020700e1
:101af800708380000307210000017800f1c0b30063
:101b0800e0112100420107000a30ef0080818000c7
:101b18006101b8000082800011828000800f5100ae
:101b2800818f59000300310000808000e10f5000d0
:101b380035ff3200808180006101b800008280009a
:101b480011828000800f5100818f590003003100fd
:101b580010808000e10f50002bff320000808000d1
:101b6800e10f500010003a0010708000640060001f
:101b78000000e00006003200024ea90050838000f9
:101b88006183800000828800118288000a00370083
:101b9800024ea800308380004183800000828800c4
:101ba8001182880004003700024ea90020ff280097
:101bb80001002000c702070010808000e10f5000dc
:101bc80010003a0010708000680060000000e0001b
:101bd80006003200026ea9005083800061838000f5
:101be80000828800118288000a003700026ea8006f
:101bf8003083800041838000008288001182880041
:101c080004003700026ea90020ff28000100200010
:101c1800b0020700e2808000f3808000108380001b
:101c280021838000800f5100818f590003003e00fe
:101c3800008080000000e00004003a00024ea90085
:101c480020ff280001002000a20207000281800076
:101c5800138180001083800021838000800f510051
:101c6800818f590003003e00108080000000e000d2
:101c780004003a00026ea90020ff2800010020009d
:101c880094020700e2808000f380800010838000c7
:101c980021838000800f5100818f5900030031009b
:101ca80000808000e10f5000d5fe320002818000e4
:101cb800138180001083800021838000800f5100f1
:101cc800818f59000300310010808000e10f50001f
:101cd800cbfe320017aea900168ea90050808000f6
:101ce8000000e0007c003200b0808000e5fd0700c5
:101cf800c08180008040780000c3b30080c07000bd
:101d0800900e210001487800b08180008040780062
:101d180000c3b30080c07000a00e21000148780005
:101d2800a08180008040780000c3b30080c07000ac
:101d3800b00e210001487800908180008040780032
:101d480000c3b30080c07000c00e210001487800b5
:101d5800c0808000cbfd0700c081800080407800f3
:101d680000c3b30080c07000800f210001487800d4
:101d7800b08180008040780000c3b30080c070004c
:101d8800900f210001487800a081800080407800f1
:101d980000c3b30080c07000a00f21000148780084
:101da800908180008040780000c3b30080c070003c
:101db800b00f210001487800168ea80037fe0700f2
:101dc80040d42100c10120004202070017aea8003c
:101dd80070838000030721000001780021c0b30050
:101de800000c21008a00070060fd2a001100200075
:101df8003802070070838000030721000001780083
:101e080021c0b300c00b21008100070060fd2a003b
:101e1800110020002f0207007083800003072100b3
:101e280000017800f1c0b300e00d21007800070040
:101e380040fe210011002000260207007083800068
:101e4800030721000001780021c0b300d00721005a
:101e58006f00070040fe2100110020001d0207004e
:101e6800708380000307210000017800f1c0b300ef
:101e7800d00e210066000700804a22009111200040
:101e88001402070070838000030721000001780016
:101e980021c0b300c00b21005d00070040fe2100f7
:101ea800110020000b020700708380000307210047
:101eb8000001780021c0b300e00b210054000700a6
:101ec80040fe2100110020000202070017aea90001
:101ed800168ea9000a30ef00024ea90020ff280044
:101ee80001002000fb010700026ea9000030ef008e
:101ef8000230ef000040fe00708180000000e0002a
:101f080032fe32000000eb000080fa0000000600fc
:101f18000000fa00a0042100e1122100110098003d
:101f2800a0042100e112210001087800a00421008a
:101f3800a00090000110a00021009800a00421003a
:101f4800a00090000100a10021009800a004210039
:101f58008040eb006140980070002000501088001d
:101f680000012800001088000422ef000228a900c0
:101f78002228a8000080fa00000006000200fa00eb
:101f8800a0042100e0409000014f78001e40780036
:101f98000080fa00000006000000fa00b08280000d
:101fa80066004000b082880054d0bf000040e900bd
:101fb80054f0b70054d0bf000004e00003003a001a
:101fc80040002000908288000200370010002000a6
:101fd800908288000080fa00000006000200fa00e3
:101fe800000f78000042a800c08280002000900006
:101ff8000000e00003003200c08280002000900052
:102008001e0878005230ef000080fa000000060039
:102018000800fa00000f780021479800220798006e
:1020280033079800a00421002000900061006000a0
:102038000000e0000a003a00ae0190002e41900036
:102048009e007800a0132100770007003e01900051
:10205800a113210010c0b3001f00070003003700c0
:102068003e0090008000eb00010878000080fa0034
:10207800000006000800fa00000f780021479800c9
:102088002207980033079800a00421002000900040
:10209800610060000000e0000a003a00ae01900014
:1020a8002e4190009e007800401321004600070052
:1020b8003e0190004113210010c0b3000600070044
:1020c800030037003e0090008000eb000108780014
:1020d8000080fa00000006000600fa00004f7800b1
:1020e8001107980022079800a00421002000900002
:1020f800610060000000e0002e003a002e00900011
:102108001100200001087800a004210010007800c8
:102118009e00900011009800a00421001000780093
:102128001e487800a004210010007800ae0090003e
:1021380021009800a004210010007800e60040006b
:10214800a004210001087800a00421009000780074
:1021580040132100808f500003003a00a0042100a2
:10216800e112210001087800a0042100a0009000dd
:102178000110a10021009800a00421009000900007
:10218800a004210010007800808f500004003a005d
:10219800a0042100a00090000100a00021009800e8
:1021a800908280000000e00005003a000228a800a4
:1021b800030037002e0090008000eb000108780033
:1021c8000080fa00000006000800fa00000f7800fe
:1021d8001107980042479800330798003e00900086
:1021e80000004000800078001e0078000108780098
:1021f8001e00780010007800800078000100a00020
:102208001e007800010878001e007800ce4090007b
:10221800214098001e0078009e0090002100980040
:102228000080fa00000006000800fa00000f78009d
:102238001107980042479800330798003e00900025
:1022480000004000800078001e0078000108780037
:102258001e007800ce409000214098001e007800b3
:102268009e009000210098000080fa0000000600ff
:102278000000fa00a0042100200090006200600025
:1022880000f0a7000000ea000000ea004f00de00ae
:10229800004078000080fa00000006000000fa0004
:1022a800a0042100200090006100600000f0a70059
:1022b8000000ea000000ea004f00de00004078005d
:0822c8000080fa00000006008e
:020000040000fa
:1022d00072100000020000008200000001000000f7
:1022e000001000002a000000800000002e110000f5
:1022f00012000000800000004a10000018000000da
:102300008000000074100000ba000000820000008d
:10231000404f47004f5845000000850000c00000b6
:1023200038003900147950006c0c010040414c0019
:1023300045525400452049004e505500542031006c
:1023400020214000414c45005254450020494e0098
:102350005055540020322000214041004c4552008d
:1023600054452000494e500055543100263221007a
:102370000001000008000c0040494e005055540078
:10238000313d2000202020006d564000494e500075
:10239000555432003d20200020206d00564043005f
:1023a0006f6d70007465750072313a002020200056
:1023b000204043006f6d70007465750072323a0002
:1023c000202020002040540075726e00696e670066
:1023d000204f460046204f005554310040547500b0
:1023e000726e69006e6720004f464600204f550010
:1023f0005432400053544f00503a48006f6c640010
:10240000204254004e3100002a100000200000003d
:102410008000000062100000100000008200000038
:10242000c0d40100007017000000e80003000000a5
:0c2430003e000100000000000000000061
:020000040000fa
:10243c000200fa00004f78002023ef002223ef0067
:10244c00f0002000201988003223ef002623ef0033
:10245c002e23ef003023ef00900420000100200019
:10246c009b0007001e407800e14f500001003a002d
:10247c00222ea8001e407800e24f500001003a00c6
:10248c000e8ea800220ea80021e3a8000080fa00fe
:10249c00000006000000fa0021e3a9000e8ea9003e
:1024ac00222ea900220ea9000080fa0000000600ce
:1024bc000800fa00604798006000b800008fbe006a
:1024cc0030312100200798006e4090000080fb0006
:1024dc00401988002023a80090042000010020004f
:1024ec007b0007002023a9000000000000198000d9
:1024fc00610060000000e000fcff3200001880006a
:10250c008000eb00008fbe002e0090008000eb00de
:10251c001e0190008091b9009e017800819ab9004b
:10252c0084017800030141009e0178000018b80076
:10253c000101410082007800008fbe00008fbe00b8
:10254c001e0078009e009000823e200003002000b8
:10255c005cfb0700008fbe001e0078000080fa00b4
:10256c00000006000000fa00c208a800014280002a
:10257c0080ff2f00008060000000a0000042880057
:10258c000008a9002008a900c228a9005142800017
:10259c0080ff2f00008060000000a00050428800e7
:1025ac000288a9002288a90001428000f0ff2800bf
:1025bc000080600000c0a000004288000068a900f4
:1025cc002068a90061428000f0ff280000806000b4
:1025dc0000c0a000604288000368a9002368a9001d
:1025ec00c248a80071428000f0f82f000080600003
:1025fc000040a0007042880003a8a90023a8a900ed
:10260c001c2ea800088ea800080ea800082ea800f2
:10261c002268a8000268a9000080fa0000000600e9
:10262c000000fa000e2eef00222eef00000ea80084
:10263c00002ea800004ea900006ea900008ea80074
:10264c00140ea800142ea800144ea800146ea80096
:10265c00148ea90014eea900150ea900152ea800c1
:10266c00154ea900156ea900158ea90015aea9006e
:10267c0015cea90015eea800044ea900046ea90001
:10268c000080fa00000006000000fa000421ef00b0
:10269c002108800000032000010070002008880041
:1026ac00b0922000100888001e21ef00f108800075
:1026bc000003200001007000f0088800005a200080
:1026cc00d00888001fe1a8000080fa000000060076
:020000040000fa
:1026dc00f03fb1000180b10006003500ee030900a7
:1026ec0000000000403fb1000180b100fbff3d0045
:1026fc001000b000203fb00002003500008009003f
:08270c000000000000000600bf
:020000040000fa
:102714000200fa000000eb00000f78000017200010
:1027240001002000ecff07001e0078004200dd00dd
:10273400000f7800100020000080fa00000006005e
:020000040000fa
:020000040005f5
:04570000ffffff00a8
:020000040000fa
:020000040005f5
:04572000ffff000087
:020000040000fa
:020000040005f5
:0457300078ff0000fe
:020000040000fa
:020000040005f5
:04573800bbff0000b3
:020000040000fa
:020000040005f5
:045740009aff0000cc
:020000040000fa
:020000040005f5
:04574800feff000060
:020000040000fa
:020000040005f5
:04575000ffff000057
:020000040000fa
:020000040005f5
:04575800ffff00004f
:020000040000fa
:020000040005f5
:04576000ffff000047
:020000040000fa
:020000040005f5
:04576800ffff00003f
:020000040000fa
:020000040005f5
:04577000ffff000037
:020000040000fa
:020000040005f5
:04577800ffff00002f
:020000040000fa
:020000040005f5
:04578000ffff000027
:020000040000fa
:020000040005f5
:04578800ffff00001f
:00000001FF
